:020000040800F2
:1000000000500020D5110008ED0E0008F50E000884
:10001000FD0E0008050F00080D0F0008000000008D
:10002000000000000000000000000000F15F000878
:10003000150F000800000000D161000819620008D7
:100040001D1200081D1200081D1200081D120008D4
:100050001D1200081D1200081D1200081D120008C4
:100060001D1200081D1200081D1200081D120008B4
:100070001D1200081D1200081D1200081D120008A4
:100080001D1200081D1200081D1200081D12000894
:100090001D1200081D1200081D1200081D12000884
:1000A0001D120008210F00081D1200081D12000873
:1000B0001D1200081D120008350F00081D1200084F
:1000C0001D1200081D1200081D1200081D12000854
:1000D0001D120008490F00081D1200081D1200081B
:1000E0001D1200081D1200081D120008000000006B
:1000F0000000000000000000000000000000000000
:0C01000000000000000000005FF808F1A3
:1001100010B5054C237833B9044B13B10448AFF341
:1001200000800123237010BD10000020000000009B
:100130005067000808B5034B1BB103490348AFF3F0
:10014000008008BD00000000140000205067000877
:1001500081F0004102E000BF83F0004330B54FEA78
:1001600041044FEA430594EA050F08BF90EA020FE5
:100170001FBF54EA000C55EA020C7FEA645C7FEA78
:10018000655C00F0E2804FEA5454D4EB5555B8BF9B
:100190006D420CDD2C4480EA020281EA030382EA0C
:1001A000000083EA010180EA020281EA0303362D9E
:1001B00088BF30BD11F0004F4FEA01314FF4801C71
:1001C0004CEA113102D0404261EB410113F0004F83
:1001D0004FEA03334CEA133302D0524263EB43033A
:1001E00094EA050F00F0A780A4F10104D5F1200ED8
:1001F0000DDB02FA0EFC22FA05F2801841F1000133
:1002000003FA0EF2801843FA05F359410EE0A5F106
:1002100020050EF1200E012A03FA0EFC28BF4CF037
:10022000020C43FA05F3C01851EBE37101F00045ED
:1002300007D54FF0000EDCF1000C7EEB00006EEBFA
:100240000101B1F5801F1BD3B1F5001F0CD3490884
:100250005FEA30004FEA3C0C04F101044FEA4452DB
:1002600012F5800F80F09A80BCF1004F08BF5FEA62
:10027000500C50F1000041EB045141EA050130BD42
:100280005FEA4C0C404141EB0101013C28BFB1F554
:10029000801FE9D291F0000F04BF01460020B1FA9F
:1002A00081F308BF2033A3F10B03B3F120020CDA72
:1002B0000C3208DD02F1140CC2F10C0201FA0CF050
:1002C00021FA02F10CE002F11402D8BFC2F1200CB5
:1002D00001FA02F120FA0CFCDCBF41EA0C0190406B
:1002E000E41AA2BF01EB0451294330BD6FEA0404B4
:1002F0001F3C1CDA0C340EDC04F11404C4F120029F
:1003000020FA04F001FA02F340EA030021FA04F3B0
:1003100045EA030130BDC4F10C04C4F1200220FA07
:1003200002F001FA04F340EA0300294630BD21FA45
:1003300004F0294630BD94F0000F83F4801306BF0B
:1003400081F480110134013D4EE77FEA645C18BFFF
:100350007FEA655C29D094EA050F08BF90EA020F96
:1003600005D054EA000C04BF1946104630BD91EA8E
:10037000030F1EBF0021002030BD5FEA545C05D191
:100380004000494128BF41F0004130BD14F58004D0
:100390003CBF01F5801130BD01F0004545F0FE4144
:1003A00041F470014FF0000030BD7FEA645C1ABF79
:1003B000194610467FEA655C1CBF0B46024650EAB0
:1003C000013406BF52EA033591EA030F41F40021DC
:1003D00030BD00BF90F0000F04BF0021704730B562
:1003E0004FF4806404F132044FF000054FF0000137
:1003F00050E700BF90F0000F04BF0021704730B5F8
:100400004FF4806404F1320410F0004548BF4042CC
:100410004FF000013EE700BF42004FEAE2014FEA21
:1004200031014FEA02701FBF12F07F4393F07F4FFC
:1004300081F06051704732F07F4208BF704793F0FF
:100440007F4F04BF41F40021704730B54FF4607412
:1004500001F0004521F000411CE700BF50EA010215
:1004600008BF704730B54FF000050AE050EA0102BE
:1004700008BF704730B511F0004502D5404261EB2E
:1004800041014FF4806404F132045FEA915C3FF46F
:10049000D8AE4FF003025FEADC0C18BF03325FEA0C
:1004A000DC0C18BF033202EBDC02C2F1200300FABD
:1004B00003FC20FA02F001FA03FE40EA0E0021FAE2
:1004C00002F11444BDE600BF70B54FF0FF0C4CF4D0
:1004D000E06C1CEA11541DBF1CEA135594EA0C0F82
:1004E00095EA0C0F00F0DEF82C4481EA030621EABD
:1004F0004C5123EA4C5350EA013518BF52EA0335F8
:1005000041F4801143F4801338D0A0FB02CE4FF0A9
:100510000005E1FB02E506F00042E0FB03E54FF0D9
:100520000006E1FB03569CF0000F18BF4EF0010ED1
:10053000A4F1FF04B6F5007F64F5407404D25FEACD
:100540004E0E6D4146EB060642EAC62141EA555180
:100550004FEAC52040EA5E504FEACE2EB4F1FD0CC2
:1005600088BFBCF5E06F1ED8BEF1004F08BF5FEA40
:10057000500E50F1000041EB045170BD06F00046F2
:1005800046EA010140EA020081EA0301B4EB5C049F
:10059000C2BFD4EB0C0541EA045170BD41F4801197
:1005A0004FF0000E013C00F3AB8014F1360FDEBFBC
:1005B000002001F0004170BDC4F10004203C35DA98
:1005C0000C341BDC04F11404C4F1200500FA05F31B
:1005D00020FA04F001FA05F240EA020001F00042BC
:1005E00021F0004110EBD37021FA04F642EB060132
:1005F0005EEA430E08BF20EAD37070BDC4F10C045C
:10060000C4F1200500FA04F320FA05F001FA04F21F
:1006100040EA020001F0004110EBD37041F100010B
:100620005EEA430E08BF20EAD37070BDC4F1200516
:1006300000FA05F24EEA020E20FA04F301FA05F27E
:1006400043EA020321FA04F001F0004121FA04F226
:1006500020EA020000EBD3705EEA430E08BF20EAF6
:10066000D37070BD94F0000F0FD101F00046400030
:1006700041EB010111F4801F08BF013CF7D041EAB2
:10068000060195F0000F18BF704703F000465200B6
:1006900043EB030313F4801F08BF013DF7D043EA87
:1006A0000603704794EA0C0F0CEA135518BF95EA3D
:1006B0000C0F0CD050EA410618BF52EA4306D1D1C4
:1006C00081EA030101F000414FF0000070BD50EAE3
:1006D000410606BF1046194652EA430619D094EA6D
:1006E0000C0F02D150EA013613D195EA0C0F05D157
:1006F00052EA03361CBF104619460AD181EA0301AB
:1007000001F0004141F0FE4141F470014FF0000062
:1007100070BD41F0FE4141F4780170BD70B54FF0FD
:10072000FF0C4CF4E06C1CEA11541DBF1CEA13557D
:1007300094EA0C0F95EA0C0F00F0A7F8A4EB05045F
:1007400081EA030E52EA03354FEA013100F0888056
:100750004FEA03334FF0805545EA131343EA12631F
:100760004FEA022245EA111545EA10654FEA0026D4
:100770000EF000419D4208BF964244F1FD0404F58D
:10078000407402D25B084FEA3202B61A65EB0305E9
:100790005B084FEA32024FF480104FF4002CB6EBA6
:1007A000020E75EB030E22BFB61A754640EA0C0026
:1007B0005B084FEA3202B6EB020E75EB030E22BF66
:1007C000B61A754640EA5C005B084FEA3202B6EBA7
:1007D000020E75EB030E22BFB61A754640EA9C0066
:1007E0005B084FEA3202B6EB020E75EB030E22BF36
:1007F000B61A754640EADC0055EA060E18D04FEAF4
:10080000051545EA16754FEA06164FEAC30343EA93
:1008100052734FEAC2025FEA1C1CC0D111F4801F60
:100820000BD141EA00014FF000004FF0004CB6E759
:1008300011F4801F04BF01430020B4F1FD0C88BFF8
:10084000BCF5E06F3FF6AFAEB5EB030C04BFB6EB03
:10085000020C5FEA500C50F1000041EB045170BDF6
:100860000EF0004E4EEA113114EB5C04C2BFD4EB23
:100870000C0541EA045170BD41F480114FF0000EA7
:10088000013C90E645EA060E8DE60CEA135594EA23
:100890000C0F08BF95EA0C0F3FF43BAF94EA0C0F26
:1008A0000AD150EA01347FF434AF95EA0C0F7FF49B
:1008B00025AF104619462CE795EA0C0F06D152EAEF
:1008C00003353FF4FDAE1046194622E750EA4106D3
:1008D00018BF52EA43067FF4C5AE50EA41047FF4E4
:1008E0000DAF52EA43057FF4EBAE12E74A0011D296
:1008F00012F5001211D20DD56FF47873B3EB62527A
:100900000ED44FEAC12343F0004343EA505323FA85
:1009100002F070474FF00000704750EA013002D1FA
:100920004FF0FF3070474FF00000704780B483B045
:1009300000AF0346FB80084B1B6800225A6200BFD1
:10094000054B1B685A6AFB889A42F9D300BF00BF67
:100950000C37BD4680BC70478C00002000000000B2
:1009600080B582B000AF78607B684B4A934240F01C
:1009700088807B681B7F042B40F08380474B1B7B68
:10098000002B1AD10821786802F076F80346434A12
:100990001360424B01221A737B681B681A6A7B68DA
:1009A0001B6822F400721A627B681B681A6A7B68F3
:1009B0001B6842F400721A6263E0384B1B7B012B08
:1009C0005FD10821786802F057F80346334A536034
:1009D0007B681B6800225A62304B5A682F4B1B6899
:1009E0009A4207D92D4B5A682C4B1B68D31A2B4AB5
:1009F00093600FE0294B1A68284B5B689A4209D92B
:100A0000264B5A68254B1B68D31A03F57F43FF33E7
:100A1000224A9360214B9B681846FFF7DBFC1CA31E
:100A2000D3E90023FFF750FD02460B461046194656
:100A30004FF000024FF08043FFF770FE02460B4676
:100A400010461946FFF752FF0346DAB2134B5A73AA
:100A5000124B00221A737B681B681A6A7B681B683A
:100A600022F400721A627B681A687B681B68126A3B
:100A70001A62094B1B68DA68074B1B6822F00802F0
:100A8000DA6000BF0837BD4680BD00BFAFF300800D
:100A90009CC420B07268A13F8C0000202C00002074
:100AA00080B500AF0821024801F06EFC00BF80BD98
:100AB0008C00002080B500AF01224FF400510B489C
:100AC00000F0F6FE0A20FFF731FF00224FF400513C
:100AD000064800F0EDFE064B1B68DA68044B1B6805
:100AE00042F00802DA6000BF80BD00BF000C014088
:100AF0008C00002080B500AFFFF7DCFFC82003F0BA
:100B0000E9F9024B5B7B184680BD00BF2C0000203A
:100B100080B500AF084A0021084803F031F90346C8
:100B2000074A1360074A0021074803F029F90346E2
:100B3000064A136000BF80BD98670008510B00088B
:100B40003C000020BC670008890B00084000002022
:100B500080B582B000AF78604FF40051074800F0D4
:100B6000BFFE4FF0FF3306220549064802F0CEFAD9
:100B7000C82003F0AFF900BFEEE700BF001001404E
:100B800078670008D400002080B584B000AF78609A
:100B9000FFF786FF0023FB73FFF7ACFF0346FB73F1
:100BA00007F10F010A230122094802F0AFFAFB7B8B
:100BB000052B06D900224FF40061064800F078FEAC
:100BC000EAE701224FF40061024800F071FEE3E71A
:100BD000D4000020000C014080B588B000AF07F1C0
:100BE000100300221A605A609A60DA602E4B9B69EB
:100BF0002D4A43F0100393612B4B9B6903F01003C4
:100C0000FB60FB68284B9B69274A43F020039361F4
:100C1000254B9B6903F02003BB60BB68224B9B699B
:100C2000214A43F0080393611F4B9B6903F00803BB
:100C30007B607B681C4B9B691B4A43F004039361F8
:100C4000194B9B6903F004033B603B6800224FF49F
:100C50000051164800F02CFE00224FF42051144899
:100C600000F026FE4FF400533B6101237B6100231B
:100C7000BB610223FB6107F1100319460B4800F02A
:100C800093FC4FF420533B6101237B610023BB6144
:100C90000223FB6107F110031946054800F084FCAC
:100CA00000BF2037BD4680BD00100240001001404B
:100CB000000C014080B500AF00F0B2FA00F00EF871
:100CC000FFF78AFF00F008FA00F04EF902F0F2FF99
:100CD000FFF71EFF03F020F800BFFDE780B590B0DE
:100CE00000AF07F1180328220021184605F0F6FC92
:100CF0003B1D00221A605A609A60DA601A61012373
:100D0000BB614FF48033FB6100233B620123BB6274
:100D100002237B634FF48033BB634FF4E013FB6328
:100D200007F11803184600F0F5FD0346002B01D02B
:100D300000F02CF80F237B600223BB600023FB60D4
:100D40004FF480633B6100237B613B1D0221184609
:100D500001F062F80346002B01D000F017F800BF45
:100D60004037BD4680BD000080B582B000AF7860DE
:100D70007B681B68044A934201D100F067FA00BF08
:100D80000837BD4680BD00BF002C014080B400AFD5
:100D900072B600BF00BFFDE780B584B000AF184B4E
:100DA0009B69174A43F001039361154B9B6903F05C
:100DB0000103BB60BB68124BDB69114A43F08053EF
:100DC000D3610F4BDB6903F080537B607B680022AB
:100DD0000F216FF0010000F00AFB0A4B5B68FB601B
:100DE000FB6823F0E063FB60FB6843F00073FB608B
:100DF000044AFB68536000BF1037BD4680BD00BF8A
:100E0000001002400000014080B58CB000AF786057
:100E10000023BB6200237B62002387F82F302E4B18
:100E20009B692D4A43F4006393612B4B9B6903F448
:100E30000063BB60BB6807F10C0207F110031146A9
:100E4000184601F059F901F043F9B862BB6A234A28
:100E5000A2FB03239B0C013B7B62214B214A1A60BE
:100E60001F4B40F2E732DA601D4A7B6A53601C4B2D
:100E700000221A611A4B00229A60194B00229A61D3
:100E8000174801F087F9034687F82F3097F82F307D
:100E9000002B1BD1124801F0CDF9034687F82F3003
:100EA00097F82F30002B11D1192000F0BCFA7B6885
:100EB0000F2B08D800227968192000F098FA0A4A06
:100EC0007B68136002E0012387F82F3097F82F30FA
:100ED00018463037BD4680BD0010024083DE1B43FC
:100EE00044000020002C01400400002080B400AF2A
:100EF00000BFFDE780B400AF00BFFDE780B400AFE6
:100F000000BFFDE780B400AF00BFFDE780B400AFD5
:100F100000BFFDE780B400AF00BFBD4680BC704796
:100F200080B500AF024801F03BFB00BF80BD00BFB1
:100F30004400002080B500AF024801F031FB00BF43
:100F400080BD00BF8C00002080B500AF024802F0D9
:100F500061F900BF80BD00BFD400002080B400AFA5
:100F600000BFBD4680BC704780B58AB000AF07F1B6
:100F7000180300221A605A609A60DA6007F11003C1
:100F800000221A605A603B4600221A605A609A603A
:100F9000DA602B4B2B4A1A60294B47225A60284BA8
:100FA00000229A60264B4FF6FF72DA60244B002233
:100FB0001A61234B00229A61214801F0EBF80346A5
:100FC000002B01D0FFF7E2FE4FF48053BB6107F125
:100FD000180319461A4801F087FC0346002B01D07C
:100FE000FFF7D4FE164801F077F90346002B01D035
:100FF000FFF7CCFE00233B6100237B6107F1100368
:1010000019460F4801F0C2FF0346002B01D0FFF73D
:10101000BDFE00233B6001237B600023BB600023F7
:10102000FB603B4608221946054801F0C1FB034618
:10103000002B01D0FFF7AAFE00BF2837BD4680BDB8
:101040008C0000200008004080B588B000AF7860B8
:1010500007F1100300221A605A609A60DA607B6818
:101060001B681A4A93422CD1194BDB69184A43F08A
:101070000403D361164BDB6903F00403FB60FB68D8
:10108000134B9B69124A43F008039361104B9B6911
:1010900003F00803BB60BB684FF480733B6100231F
:1010A0007B610023BB6107F110031946094800F07A
:1010B0007BFA002205211E2000F099F91E2000F085
:1010C000B2F900BF2037BD4680BD00BF0008004018
:1010D00000100240000C014080B500AF114B124AD5
:1010E0001A60104B4FF416525A600E4B00229A6051
:1010F0000C4B0022DA600B4B00221A61094B0C22C8
:101100005A61084B00229A61064B0022DA610548B9
:1011100001F0ACFF0346002B01D0FFF737FE00BF04
:1011200080BD00BFD40000200038014080B588B0E9
:1011300000AF786007F1100300221A605A609A60CD
:10114000DA607B681B68204A934239D11F4B9B6948
:101150001E4A43F4804393611C4B9B6903F4804314
:10116000FB60FB68194B9B69184A43F004039361C9
:10117000164B9B6903F00403BB60BB684FF400731C
:101180003B6102237B610323FB6107F110031946D6
:101190000F4800F009FA4FF480633B6100237B6144
:1011A0000023BB6107F110031946094800F0FCF960
:1011B00000220521252000F01AF9252000F033F93E
:1011C00000BF2037BD4680BD0038014000100240FE
:1011D00000080140FFF7C2FE0B480C490C4A0023EF
:1011E00002E0D458C4500433C4188C42F9D3094ADD
:1011F000094C002301E013600432A242FBD305F046
:1012000075FAFFF757FD704700000020100000201E
:101210001468000810000020681A0020FEE7000093
:1012200080B500AF084B1B68074A43F010031360FA
:10123000032000F0D1F80F20FFF7E6FDFFF7ACFD2B
:101240000023184680BD00BF0020024080B400AFDC
:10125000054B1B781A46054B1B681344034A136061
:1012600000BFBD4680BC7047080000201C01002064
:1012700080B400AF024B1B681846BD4680BC704767
:101280001C01002080B485B000AF78607B6803F05B
:101290000703FB600C4BDB68BB60BA684FF6FF03CB
:1012A0001340BB60FB681A02BB68134343F0BF6383
:1012B00043F40033BB60044ABB68D36000BF1437FB
:1012C000BD4680BC704700BF00ED00E080B400AFB9
:1012D000044BDB681B0A03F007031846BD4680BCBD
:1012E000704700BF00ED00E080B483B000AF03465C
:1012F000FB7197F90730002B0BDBFB7903F01F0222
:10130000064997F907305B09012000FA02F241F81B
:10131000232000BF0C37BD4680BC704700E100E0D1
:1013200080B483B000AF03463960FB7197F9073092
:10133000002B0ADB3B68DAB20C4997F9073012013F
:10134000D2B20B4483F800230AE03B68DAB20849C2
:10135000FB7903F00F03043B1201D2B20B441A765F
:1013600000BF0C37BD4680BC704700BF00E100E005
:1013700000ED00E080B489B000AFF860B9607A6039
:10138000FB6803F00703FB61FB69C3F10703042B50
:1013900028BF0423BB61FB690433062B02D9FB6918
:1013A000033B00E000237B614FF0FF32BB6902FA90
:1013B00003F3DA43BB681A407B699A404FF0FF3170
:1013C0007B6901FA03F3D9437B680B40134318464A
:1013D0002437BD4680BC704780B582B000AF7860CE
:1013E0007868FFF74FFF00BF0837BD4680BD80B566
:1013F00086B000AF0346B9607A60FB7300237B615F
:10140000FFF764FF78617A68B9687869FFF7B2FF1F
:10141000024697F90F3011461846FFF781FF00BFCB
:101420001837BD4680BD80B582B000AF0346FB7162
:1014300097F907301846FFF757FF00BF0837BD463A
:1014400080BD80B485B000AF78600023FB737B68FB
:1014500093F82130DBB2022B08D07B6804229A6318
:101460007B68002283F82020012320E07B681B6832
:101470001A687B681B6822F00E021A607B681B6882
:101480001A687B681B6822F001021A607B681A6C7C
:101490007B68DB6B012101FA02F25A607B68012252
:1014A00083F821207B68002283F82020FB7B1846EC
:1014B0001437BD4680BC704780B584B000AF7860FB
:1014C0000023FB737B6893F82130DBB2022B05D03D
:1014D0007B6804229A630123FB7351E07B681B68DD
:1014E0001A687B681B6822F00E021A607B681B6812
:1014F0001A687B681B6822F001021A607B681B680F
:10150000224A934229D07B681B68214A934222D009
:101510007B681B681F4A93421AD07B681B681E4A6F
:10152000934212D07B681B681C4A93420AD07B68A6
:101530001B681B4A934202D14FF480130EE04FF018
:1015400080730BE04FF4803308E04FF4805305E0E4
:101550004FF4807302E0102300E00123114A53602E
:101560007B68012283F821207B68002283F82020F9
:101570007B685B6B002B03D07B685B6B786898475C
:10158000FB7B18461037BD4680BD00BF08000240F7
:101590001C0002403000024044000240580002405B
:1015A0006C0002400000024080B48BB000AF786055
:1015B000396000237B6200233B6269E101227B6A80
:1015C00002FA03F3FB613B681B68FA691340BB61D5
:1015D000BA69FB699A4240F058813B685B689A4A55
:1015E00093425ED0984A934275D8984A934258D015
:1015F000964A93426FD8964A934252D0944A934265
:1016000069D8944A93424CD0924A934263D8924A02
:10161000934246D0904A93425DD8122B2AD8122B7F
:1016200059D801A252F823F0A31600087D1600082D
:101630008F160008D1160008D7160008D716000824
:10164000D7160008D7160008D7160008D7160008C6
:10165000D7160008D7160008D7160008D7160008B6
:10166000D7160008D7160008D716000885160008F8
:1016700099160008794A934213D02CE03B68DB6846
:101680003B6229E03B68DB6804333B6224E03B6853
:10169000DB6808333B621FE03B68DB680C333B626E
:1016A0001AE03B689B68002B02D104233B6213E0E5
:1016B0003B689B68012B05D108233B627B68FA6974
:1016C0001A6109E008233B627B68FA695A6103E00A
:1016D00000233B6200E000BFBB69FF2B01D87B68A1
:1016E00001E07B6804337B61BB69FF2B02D87B6A16
:1016F0009B0002E07B6A083B9B003B617B691A68A8
:101700000F213B6901FA03F3DB431A40396A3B6955
:1017100001FA03F31A437B691A603B685B6803F0C4
:101720008053002B00F0B1804D4B9B694C4A43F035
:10173000010393614A4B9B6903F00103BB60BB68E3
:10174000484A7B6A9B08023352F82330FB607B6A6D
:1017500003F003039B000F2202FA03F3DB43FA6852
:101760001340FB607B68404A934213D07B683F4A3A
:1017700093420DD07B683E4A934207D07B683D4A36
:10178000934201D1032306E0042304E0022302E094
:10179000012300E000237A6A02F0030292009340E2
:1017A000FA681343FB602F497B6A9B080233FA688F
:1017B00041F823203B685B6803F48013002B06D0BC
:1017C0002D4B9A682C49BB6913438B6006E02A4B6A
:1017D0009A68BB69DB43284913408B603B685B68B0
:1017E00003F40013002B06D0234BDA682249BB69AF
:1017F0001343CB6006E0204BDA68BB69DB431E492C
:101800001340CB603B685B6803F40033002B06D0C9
:10181000194B5A681849BB6913434B6006E0164BD5
:101820005A68BB69DB43144913404B603B685B68F3
:1018300003F48033002B21D00F4B1A680E49BB698B
:1018400013430B6021E000BF000032100000311094
:1018500000002210000021100000121000001110E2
:10186000001002400000014000080140000C01404F
:101870000010014000140140000401400B4B1A68A5
:10188000BB69DB43094913400B607B6A01337B6210
:101890003B681A687B6A22FA03F3002B7FF48EAE52
:1018A00000BF00BF2C37BD4680BC7047000401401C
:1018B00080B483B000AF78600B467B8013467B70AA
:1018C0007B78002B03D07A887B681A6103E07B88E1
:1018D0001A047B681A6100BF0C37BD4680BC704794
:1018E00080B485B000AF78600B467B807B68DB6896
:1018F000FB607A88FB6813401A04FB68D9437B8835
:101900000B401A437B681A6100BF1437BD4680BC88
:101910007047000080B586B000AF78607B68002B10
:1019200001D1012372E27B681B6803F00103002BE5
:1019300000F08780924B5B6803F00C03042B0CD003
:101940008F4B5B6803F00C03082B12D18C4B5B6848
:1019500003F48033B3F5803F0BD1894B1B6803F44C
:101960000033002B6CD07B685B68002B68D10123AF
:101970004CE27B685B68B3F5803F06D1804B1B6807
:101980007F4A43F4803313602EE07B685B68002B52
:101990000CD17B4B1B687A4A23F480331360784B5D
:1019A0001B68774A23F4802313601DE07B685B6823
:1019B000B3F5A02F0CD1724B1B68714A43F48023FE
:1019C00013606F4B1B686E4A43F4803313600BE067
:1019D0006B4B1B686A4A23F480331360684B1B68A7
:1019E000674A23F4802313607B685B68002B13D065
:1019F000FFF73EFC386108E0FFF73AFC02463B691E
:101A0000D31A642B01D9032300E25D4B1B6803F456
:101A10000033002BF0D014E0FFF72AFC386108E017
:101A2000FFF726FC02463B69D31A642B01D9032336
:101A3000ECE1534B1B6803F40033002BF0D100E0C2
:101A400000BF7B681B6803F00203002B63D04C4B84
:101A50005B6803F00C03002B0BD0494B5B6803F071
:101A60000C03082B1CD1464B5B6803F48033002B1E
:101A700016D1434B1B6803F00203002B05D07B6893
:101A80001B69012B01D00123C0E13D4B1B6823F0F2
:101A9000F8027B685B69DB00394913430B603AE06D
:101AA0007B681B69002B20D0364B01221A60FFF7A0
:101AB000DFFB386108E0FFF7DBFB02463B69D31A26
:101AC000022B01D90323A1E12D4B1B6803F0020374
:101AD000002BF0D02A4B1B6823F0F8027B685B696F
:101AE000DB00274913430B6015E0264B00221A60E8
:101AF000FFF7BEFB386108E0FFF7BAFB02463B691F
:101B0000D31A022B01D9032380E11D4B1B6803F07C
:101B10000203002BF0D17B681B6803F00803002B45
:101B20003AD07B689B69002B19D0174B01221A60B1
:101B3000FFF79EFB386108E0FFF79AFB02463B691E
:101B4000D31A022B01D9032360E10D4B5B6A03F02A
:101B50000203002BF0D0012000F0FEFA1CE00A4B3B
:101B600000221A60FFF784FB38610FE0FFF780FB6B
:101B700002463B69D31A022B08D9032346E100BF72
:101B8000001002400000424280044242924B5B6AD5
:101B900003F00203002BE9D17B681B6803F0040308
:101BA000002B00F0A6800023FB758B4BDB6903F054
:101BB0008053002B0DD1884BDB69874A43F080535B
:101BC000D361854BDB6903F08053BB60BB680123A5
:101BD000FB75824B1B6803F48073002B18D17F4B7D
:101BE0001B687E4A43F480731360FFF741FB386142
:101BF00008E0FFF73DFB02463B69D31A642B01D98D
:101C0000032303E1754B1B6803F48073002BF0D0B2
:101C10007B68DB68012B06D16F4B1B6A6E4A43F071
:101C2000010313622DE07B68DB68002B0CD16A4B4B
:101C30001B6A694A23F001031362674B1B6A664AF9
:101C400023F0040313621CE07B68DB68052B0CD1D6
:101C5000614B1B6A604A43F0040313625E4B1B6ACC
:101C60005D4A43F0010313620BE05B4B1B6A5A4A67
:101C700023F001031362584B1B6A574A23F00403F5
:101C800013627B68DB68002B15D0FFF7F1FA38612F
:101C90000AE0FFF7EDFA02463B69D31A41F28832B7
:101CA000934201D90323B1E04B4B1B6A03F00203BB
:101CB000002BEED014E0FFF7DBFA38610AE0FFF703
:101CC000D7FA02463B69D31A41F28832934201D9CE
:101CD00003239BE0404B1B6A03F00203002BEED171
:101CE000FB7D012B05D13C4BDB693B4A23F0805344
:101CF000D3617B68DB69002B00F08780364B5B6823
:101D000003F00C03082B61D07B68DB69022B46D102
:101D1000334B00221A60FFF7ABFA386108E0FFF797
:101D2000A7FA02463B69D31A022B01D903236DE0BF
:101D3000294B1B6803F00073002BF0D17B681B6AF2
:101D4000B3F5803F08D1244B5B6823F400327B68F5
:101D50009B68214913434B601F4B5B6823F474124B
:101D60007B68196A7B685B6A0B431B4913434B60B2
:101D70001B4B01221A60FFF77BFA386108E0FFF77E
:101D800077FA02463B69D31A022B01D903233DE0BF
:101D9000114B1B6803F00073002BF0D035E0104BA3
:101DA00000221A60FFF764FA386108E0FFF760FA72
:101DB00002463B69D31A022B01D9032326E0064BC6
:101DC0001B6803F00073002BF0D11EE07B68DB6919
:101DD000012B07D1012319E00010024000700040E0
:101DE000600042420B4B5B68FB60FB6803F480328F
:101DF0007B681B6A9A4206D1FB6803F470127B6809
:101E00005B6A9A4201D0012300E00023184618378C
:101E1000BD4680BD0010024080B584B000AF786040
:101E200039607B68002B01D10123D0E06A4B1B682D
:101E300003F007033A689A4210D9674B1B6823F0F6
:101E4000070265493B6813430B60634B1B6803F053
:101E500007033A689A4201D00123B8E07B681B6807
:101E600003F00203002B20D07B681B6803F00403FF
:101E7000002B05D0594B5B68584A43F4E06353602C
:101E80007B681B6803F00803002B05D0534B5B688D
:101E9000524A43F460535360504B5B6823F0F002A6
:101EA0007B689B684D4913434B607B681B6803F05C
:101EB0000103002B40D07B685B68012B07D1474BA7
:101EC0001B6803F40033002B15D101237FE07B68EE
:101ED0005B68022B07D1414B1B6803F00073002B9A
:101EE00009D1012373E03D4B1B6803F00203002B73
:101EF00001D101236BE0394B5B6823F003027B685F
:101F00005B68364913434B60FFF7B2F9F8600AE0AB
:101F1000FFF7AEF90246FB68D31A41F288329342CA
:101F200001D9032353E02D4B5B6803F00C027B685F
:101F30005B689B009A42EBD1274B1B6803F00703B9
:101F40003A689A4210D2244B1B6823F007022249B8
:101F50003B6813430B60204B1B6803F007033A6890
:101F60009A4201D0012332E07B681B6803F004032E
:101F7000002B08D0194B5B6823F4E0627B68DB68B8
:101F8000164913434B607B681B6803F00803002B62
:101F900009D0124B5B6823F460527B681B69DB003D
:101FA0000E4913434B6000F021F802460B4B5B686F
:101FB0001B0903F00F030A49CB5C22FA03F3094A19
:101FC0001360094B1B681846FEF71EFF00231846D6
:101FD0001037BD4680BD00BF002002400010024007
:101FE000E0670008000000200400002080B487B0F3
:101FF00000AF0023FB600023BB6000237B61002354
:102000007B6000233B611E4B5B68FB60FB6803F059
:102010000C03042B02D0082B03D027E0194B3B61A3
:1020200027E0FB689B0C03F00F03174AD35C7B602F
:10203000FB6803F48033002B10D0114B5B685B0C02
:1020400003F00103114AD35CBB607B680D4A03FBBC
:1020500002F2BB68B2FBF3F37B6104E07B680C4ADD
:1020600002FB03F37B617B693B6102E0054B3B6153
:1020700000BF3B6918461C37BD4680BC704700BF97
:102080000010024000127A00F86700080868000893
:1020900000093D0080B400AF024B1B681846BD46E6
:1020A00080BC70470000002080B500AFFFF7F2FF52
:1020B0000246054B5B681B0A03F007030349CB5C30
:1020C00022FA03F3184680BD00100240F0670008B2
:1020D00080B500AFFFF7DEFF0246054B5B68DB0A09
:1020E00003F007030349CB5C22FA03F3184680BDD3
:1020F00000100240F067000880B483B000AF786041
:1021000039607B680F221A60114B5B6803F0030291
:102110007B685A600E4B5B6803F0F0027B689A6044
:102120000B4B5B6803F4E0627B68DA60084B5B682A
:10213000DB0803F4E0627B681A61064B1B6803F05E
:1021400007023B681A6000BF0C37BD4680BC704771
:10215000001002400020024080B485B000AF7860DB
:102160000A4B1B680A4AA2FB03235B0A7A6802FB3C
:1021700003F3FB6000BFFB685A1EFA60002BF9D125
:1021800000BF00BF1437BD4680BC70470000002070
:10219000D34D621080B582B000AF78607B68002BB1
:1021A00001D1012341E07B6893F83D30DBB2002B85
:1021B00006D17B68002283F83C207868FEF744FF54
:1021C0007B68022283F83D207B681A687B680433B1
:1021D0001946104600F0B0FC7B68012283F84620C7
:1021E0007B68012283F83E207B68012283F83F2030
:1021F0007B68012283F840207B68012283F841201C
:102200007B68012283F842207B68012283F8432007
:102210007B68012283F844207B68012283F84520F3
:102220007B68012283F83D20002318460837BD460D
:1022300080BD000080B485B000AF78607B6893F803
:102240003D30DBB2012B01D001233AE07B68022252
:1022500083F83D207B681B68DA687B681B6842F066
:102260000102DA607B681B68184A93420ED07B68D3
:102270001B68B3F1804F09D07B681B68144A9342F6
:1022800004D07B681B68134A934211D17B681B689A
:102290009B6803F00703FB60FB68062B10D07B688C
:1022A0001B681A687B681B6842F001021A6007E02D
:1022B0007B681B681A687B681B6842F001021A6021
:1022C000002318461437BD4680BC7047002C0140DF
:1022D000000400400008004080B582B000AF786084
:1022E0007B68002B01D1012341E07B6893F83D30EE
:1022F000DBB2002B06D17B68002283F83C20786893
:1023000000F039F87B68022283F83D207B681A6868
:102310007B6804331946104600F00EFC7B680122EE
:1023200083F846207B68012283F83E207B680122E7
:1023300083F83F207B68012283F840207B680122DC
:1023400083F841207B68012283F842207B680122C8
:1023500083F843207B68012283F844207B680122B4
:1023600083F845207B68012283F83D20002318462E
:102370000837BD4680BD80B483B000AF786000BF31
:102380000C37BD4680BC704780B584B000AF786024
:1023900039600023FB733B68002B04D17B6893F802
:1023A0003E30DBB213E03B68042B04D17B6893F82A
:1023B0003F30DBB20BE03B68082B04D17B6893F81D
:1023C0004030DBB203E07B6893F84130DBB2BB7393
:1023D0003B68002B04D17B6893F84230DBB213E0FA
:1023E0003B68042B04D17B6893F84330DBB20BE0ED
:1023F0003B68082B04D17B6893F84430DBB203E0E0
:102400007B6893F84530DBB27B73BB7B012B02D139
:102410007B7B012B01D00123B8E03B68002B04D16A
:102420007B68022283F83E2013E03B68042B04D132
:102430007B68022283F83F200BE03B68082B04D125
:102440007B68022283F8402003E07B68022283F845
:1024500041203B68002B04D17B68022283F8422094
:1024600013E03B68042B04D17B68022283F84320ED
:102470000BE03B68082B04D17B68022283F84420E0
:1024800003E07B68022283F845203B680C2B41D88F
:1024900001A252F823F000BFCD2400081525000842
:1024A0001525000815250008DF240008152500085B
:1024B0001525000815250008F12400081525000839
:1024C0001525000815250008032500087B681B68F2
:1024D000DA687B681B6842F00202DA601DE07B6804
:1024E0001B68DA687B681B6842F00402DA6014E05B
:1024F0007B681B68DA687B681B6842F00802DA6058
:102500000BE07B681B68DA687B681B6842F010028E
:10251000DA6002E00123FB7300BFFB7B002B34D1A8
:102520007B681B6801223968184600F00AFD7B6849
:102530001B68184A93420ED07B681B68B3F1804F2A
:1025400009D07B681B68144A934204D07B681B68DF
:10255000124A934211D17B681B689B6803F0070302
:10256000BB60BB68062B10D07B681B681A687B6851
:102570001B6842F001021A6007E07B681B681A685A
:102580007B681B6842F001021A60FB7B184610371B
:10259000BD4680BD002C0140000400400008004002
:1025A00080B582B000AF78607B681B681B6903F060
:1025B0000203022B22D17B681B68DB6803F0020355
:1025C000022B1BD17B681B686FF002021A617B68CB
:1025D00001221A777B681B689B6903F00303002BB9
:1025E00003D07868FEF7BCF905E0786800F088FA57
:1025F000786800F08EFA7B6800221A777B681B6887
:102600001B6903F00403042B22D17B681B68DB6881
:1026100003F00403042B1BD17B681B686FF00402DA
:102620001A617B6802221A777B681B689B6903F436
:102630004073002B03D07868FEF792F905E07868C4
:1026400000F05EFA786800F064FA7B6800221A777E
:102650007B681B681B6903F00803082B22D17B6889
:102660001B68DB6803F00803082B1BD17B681B6821
:102670006FF008021A617B6804221A777B681B6876
:10268000DB6903F00303002B03D07868FEF768F9D9
:1026900005E0786800F034FA786800F03AFA7B6870
:1026A00000221A777B681B681B6903F01003102B4C
:1026B00022D17B681B68DB6803F01003102B1BD151
:1026C0007B681B686FF010021A617B6808221A771A
:1026D0007B681B68DB6903F44073002B03D07868C8
:1026E000FEF73EF905E0786800F00AFA786800F035
:1026F00010FA7B6800221A777B681B681B6903F05D
:102700000103012B0ED17B681B68DB6803F001031A
:10271000012B07D17B681B686FF001021A61786892
:10272000FEF722FB7B681B681B6903F08003802B8C
:102730000ED17B681B68DB6803F08003802B07D118
:102740007B681B686FF080021A61786800F085FC76
:102750007B681B681B6903F04003402B0ED17B682C
:102760001B68DB6803F04003402B07D17B681B68C4
:102770006FF040021A61786800F0D4F97B681B683A
:102780001B6903F02003202B0ED17B681B68DB68DC
:1027900003F02003202B07D17B681B686FF0200219
:1027A0001A61786800F050FC00BF0837BD4680BD54
:1027B00080B586B000AFF860B9607A600023FB7521
:1027C000FB6893F83C30012B01D1022388E0FB68C1
:1027D000012283F83C207B68002B1BD1FB68186822
:1027E000BB681968BB685A68BB68DB6800F006FA0A
:1027F000FB681B689A69FB681B6822F00C029A61EF
:10280000FB681B689969BB689A68FB681B680A4388
:102810009A6160E07B68042B1CD1FB681868BB6878
:102820001968BB685A68BB68DB6800F06FFAFB6820
:102830001B689A69FB681B6822F440629A61FB6816
:102840001B689969BB689B681A02FB681B680A438E
:102850009A6140E07B68082B1BD1FB681868BB6855
:102860001968BB685A68BB68DB6800F0BAFAFB6895
:102870001B68DA69FB681B6822F00C02DA61FB68EE
:102880001B68D969BB689A68FB681B680A43DA61F0
:1028900021E07B680C2B1CD1FB681868BB681968A9
:1028A000BB685A68BB68DB6800F0D6FAFB681B6837
:1028B000DA69FB681B6822F44062DA61FB681B6816
:1028C000D969BB689B681A02FB681B680A43DA6116
:1028D00001E00123FB75FB68002283F83C20FB7DAF
:1028E00018461837BD4680BD80B584B000AF78600B
:1028F00039600023FB737B6893F83C30012B01D1D6
:102900000223B4E07B68012283F83C207B6802222A
:1029100083F83D207B681B689B68BB60BB6823F025
:102920007703BB60BB6823F47F43BB607B681B6895
:10293000BA689A603B681B68B3F5005F3ED0B3F598
:10294000005F00F28780B3F5805F00F08680B3F50A
:10295000805F7FD8702B1AD0702B7BD8602B50D023
:10296000602B77D8502B3CD0502B73D8402B58D0AD
:10297000402B6FD8302B64D0302B6BD8202B60D0FD
:10298000202B67D8002B5CD0102B5AD062E07B68DC
:1029900018683B6899683B685A683B68DB6800F0D8
:1029A000B1FA7B681B689B68BB60BB6843F0770328
:1029B000BB607B681B68BA689A604FE07B681868E8
:1029C0003B6899683B685A683B68DB6800F09AFA94
:1029D0007B681B689A687B681B6842F480429A6037
:1029E0003CE07B6818683B6859683B68DB681A46BE
:1029F00000F05EF97B681B685021184600F068FA09
:102A00002CE07B6818683B6859683B68DB681A46AD
:102A100000F0B8F97B681B686021184600F058FA8E
:102A20001CE07B6818683B6859683B68DB681A469D
:102A300000F03EF97B681B684021184600F048FA18
:102A40000CE07B681A683B681B681946104600F06A
:102A50003FFA03E00123FB7300E000BF7B68012223
:102A600083F83D207B68002283F83C20FB7B1846DE
:102A70001037BD4680BD000080B485B000AF7860DF
:102A800039600023FB603B680C2B31D801A252F85F
:102A900023F000BFC92A0008F12A0008F12A000823
:102AA000F12A0008D32A0008F12A0008F12A0008B8
:102AB000F12A0008DD2A0008F12A0008F12A00089E
:102AC000F12A0008E72A00087B681B685B6BFB6043
:102AD0000FE07B681B689B6BFB600AE07B681B68F0
:102AE000DB6BFB6005E07B681B681B6CFB6000E038
:102AF00000BFFB6818461437BD4680BC704700BF56
:102B000080B483B000AF786000BF0C37BD4680BC96
:102B1000704780B483B000AF786000BF0C37BD460B
:102B200080BC704780B483B000AF786000BF0C37C2
:102B3000BD4680BC7047000080B485B000AF7860AF
:102B400039607B681B68FB607B68294A93420BD025
:102B50007B68B3F1804F07D07B68264A934203D04D
:102B60007B68254A934208D1FB6823F07003FB6021
:102B70003B685B68FA681343FB607B681C4A9342BE
:102B80000BD07B68B3F1804F07D07B68194A934222
:102B900003D07B68184A934208D1FB6823F4407342
:102BA000FB603B68DB68FA681343FB60FB6823F05B
:102BB00080023B685B691343FB607B68FA681A60BC
:102BC0003B689A687B68DA623B681A687B689A623D
:102BD0007B68074A934203D13B681A697B681A6392
:102BE0007B6801225A6100BF1437BD4680BC704724
:102BF000002C0140000400400008004080B487B071
:102C000000AFF860B9607A603B60FB681B6A3B61AB
:102C1000FB681B6A23F00102FB681A62FB689B6970
:102C20007B61FB681F4A93420BD0FB68B3F1804F76
:102C300007D0FB681C4A934203D0FB681B4A9342AF
:102C400001D1012300E00023002B08D07B6923F091
:102C500003037B617A697B6813437B6103E07B69D3
:102C600043F001037B617B6923F0F0037B613B68E8
:102C70001B01DBB27A6913437B613B6923F00A03D2
:102C80003B61BB6803F00A033A6913433B61FB688D
:102C90007A699A61FB683A691A6200BF1C37BD46BF
:102CA00080BC7047002C0140000400400008004038
:102CB00080B487B000AFF860B9607A60FB681B6AC7
:102CC0007B61FB681B6A23F00102FB681A62FB68E8
:102CD0009B693B613B6923F0F0033B617B681B010F
:102CE0003A6913433B617B6923F00A037B617A698C
:102CF000BB6813437B61FB683A699A61FB687A6938
:102D00001A6200BF1C37BD4680BC704780B487B0D4
:102D100000AFF860B9607A603B60FB681B6A7B615A
:102D2000FB681B6A23F01002FB681A62FB689B6950
:102D30003B613B6923F440733B617B681B023A694A
:102D400013433B613B6923F470433B613B681B03C6
:102D50009BB23A6913433B617B6923F0A0037B611B
:102D6000BB681B0103F0A0037A6913437B61FB6816
:102D70003A699A61FB687A691A6200BF1C37BD46DE
:102D800080BC704780B487B000AFF860B9607A60EB
:102D9000FB681B6A7B61FB681B6A23F01002FB68FF
:102DA0001A62FB689B693B613B6923F470433B619A
:102DB0007B681B033A6913433B617B6923F0A003E3
:102DC0007B61BB681B017A6913437B61FB683A69CD
:102DD0009A61FB687A691A6200BF1C37BD4680BCE5
:102DE000704780B487B000AFF860B9607A603B602C
:102DF000FB681B6A7B61FB681B6A23F48072FB68BB
:102E00001A62FB68DB693B613B6923F003033B61AA
:102E10003A697B6813433B613B6923F0F0033B61F4
:102E20003B681B01DBB23A6913433B617B6923F4C6
:102E300000737B61BB681B0203F400737A69134360
:102E40007B61FB683A69DA61FB687A691A6200BFE4
:102E50001C37BD4680BC704780B487B000AFF860B7
:102E6000B9607A603B60FB681B6A7B61FB681B6A28
:102E700023F48052FB681A62FB68DB693B613B69A3
:102E800023F440733B617B681B023A6913433B6147
:102E90003B6923F470433B613B681B039BB23A6977
:102EA00013433B617B6923F400537B61BB681B03C5
:102EB00003F400537A6913437B61FB683A69DA6172
:102EC000FB687A691A6200BF1C37BD4680BC704738
:102ED00080B485B000AF786039607B689B68FB6028
:102EE000FB6823F07003FB603A68FB68134343F010
:102EF0000703FB607B68FA689A6000BF1437BD4621
:102F000080BC704780B487B000AFF860B9607A6069
:102F10003B60FB689B687B617B6923F47F437B613B
:102F20003B681A027B681A43BB6813437A691343F0
:102F30007B61FB687A699A6000BF1C37BD4680BC24
:102F4000704780B487B000AFF860B9607A60BB6842
:102F500003F01F03012202FA03F37B61FB681A6A84
:102F60007B69DB431A40FB681A62FB681A6ABB681C
:102F700003F01F03796801FA03F31A43FB681A622E
:102F800000BF1C37BD4680BC7047000080B485B0D0
:102F900000AF786039607B6893F83C30012B01D139
:102FA000022346E07B68012283F83C207B680222F2
:102FB00083F83D207B681B685B68FB607B681B684F
:102FC0009B68BB60FB6823F07003FB603B681B6879
:102FD000FA681343FB607B681B68FA685A607B6879
:102FE0001B68164A93420ED07B681B68B3F1804F72
:102FF00009D07B681B68124A934204D07B681B6827
:10300000104A93420CD1BB6823F08003BB603B683D
:103010005B68BA681343BB607B681B68BA689A60D8
:103020007B68012283F83D207B68002283F83C20E6
:10303000002318461437BD4680BC7047002C014061
:10304000000400400008004080B483B000AF786006
:1030500000BF0C37BD4680BC704780B483B000AF62
:10306000786000BF0C37BD4680BC704780B582B029
:1030700000AF78607B68002B01D1012342E07B68C0
:1030800093F84130DBB2002B06D17B68002283F835
:1030900040207868FEF74AF87B68242283F84120B4
:1030A0007B681B68DA687B681B6822F40052DA6070
:1030B000786800F071FD7B681B681A697B681B6883
:1030C00022F490421A617B681B685A697B681B680E
:1030D00022F02A025A617B681B68DA687B681B68E9
:1030E00042F40052DA607B6800225A647B68202236
:1030F00083F841207B68202283F842207B680022ED
:103100005A63002318460837BD4680BD80B58AB093
:1031100002AFF860B9603B601346FB8000237B611F
:10312000FB6893F84130DBB2202B6DD1BB68002BDC
:1031300002D0FB88002B01D1012366E0FB6800224E
:103140005A64FB68212283F84120FEF791F87861E8
:10315000FB68FA889A84FB68FA88DA84FB689B68C3
:10316000B3F5805F08D1FB681B69002B04D10023F5
:10317000FB61BB68BB6103E0BB68FB610023BB6113
:103180002AE03B6800937B6900228021F86800F008
:10319000F9FA0346002B01D0032336E0FB69002B2C
:1031A0000BD1BB691B881A46FB681B68C2F3080277
:1031B0005A60BB690233BB6107E0FB691A78FB68A0
:1031C0001B685A60FB690133FB61FB68DB8C9BB2B7
:1031D000013B9AB2FB68DA84FB68DB8C9BB2002B64
:1031E000CFD13B6800937B6900224021F86800F052
:1031F000C9FA0346002B01D0032306E0FB68202216
:1032000083F84120002300E0022318462037BD4602
:1032100080BD000080B5BAB000AF78607B681B68E5
:103220001B68C7F8E4307B681B68DB68C7F8E030D0
:103230007B681B685B69C7F8DC300023C7F8D830AF
:103240000023C7F8D430D7F8E43003F00F03C7F8F1
:10325000D830D7F8D830002B0FD1D7F8E43003F0AE
:103260002003002B09D0D7F8E03003F02003002B17
:1032700003D0786800F0D1FB5BE2D7F8D830002BA0
:1032800000F0DE80D7F8DC3003F00103002B06D11C
:10329000D7F8E03003F49073002B00F0D180D7F81A
:1032A000E43003F00103002B0BD0D7F8E03003F437
:1032B0008073002B05D07B685B6C43F001027B6858
:1032C0005A64D7F8E43003F00403002B0BD0D7F88E
:1032D000DC3003F00103002B05D07B685B6C43F00E
:1032E00002027B685A64D7F8E43003F00203002B33
:1032F0000BD0D7F8DC3003F00103002B05D07B683E
:103300005B6C43F004027B685A64D7F8E43003F046
:103310000803002B11D0D7F8E03003F02003002B76
:1033200005D1D7F8DC3003F00103002B05D07B6812
:103330005B6C43F008027B685A647B685B6C002B13
:1033400000F0F281D7F8E43003F02003002B08D01E
:10335000D7F8E03003F02003002B02D0786800F0AB
:103360005CFB7B681B685B6903F04003002B14BFA8
:1033700001230023DBB2C7F8D4307B685B6C03F019
:103380000803002B03D1D7F8D430002B4FD0786836
:1033900000F066FA7B681B685B6903F04003002B52
:1033A00041D07B681B681433C7F89C30D7F89C3039
:1033B00053E8003FC7F89830D7F8983023F040031F
:1033C000C7F8D0307B681B681433D7F8D020C7F813
:1033D000A820C7F8A430D7F8A410D7F8A82041E84F
:1033E0000023C7F8A030D7F8A030002BD9D17B68D4
:1033F000DB6B002B13D07B68DB6B7E4A5A637B68E8
:10340000DB6B1846FEF758F80346002B16D07B6896
:10341000DB6B5B6B7A68D26B104698470EE078687E
:1034200000F09CF90AE0786800F098F906E0786806
:1034300000F094F97B6800225A6475E100BF73E1E3
:103440007B681B6B012B40F04F81D7F8E43003F011
:103450001003002B00F04881D7F8E03003F0100390
:10346000002B00F041810023BB607B681B681B6858
:10347000BB607B681B685B68BB60BB687B681B6864
:103480005B6903F04003002B00F0B6807B68DB6BC8
:103490001B685B68A7F8BE30B7F8BE30002B00F0A1
:1034A00045817B689B8DB7F8BE209A4280F03E81B3
:1034B0007B68B7F8BE20DA857B68DB6B9B69202BC5
:1034C00000F088807B681B680C33C7F88830D7F819
:1034D000883053E8003FC7F88430D7F8843023F4AD
:1034E0008073C7F8B8307B681B680C33D7F8B820F6
:1034F000C7F89420C7F89030D7F89010D7F89420E8
:1035000041E80023C7F88C30D7F88C30002BD9D194
:103510007B681B6814337B677B6F53E8003F3B6716
:103520003B6F23F00103C7F8B4307B681B6814338A
:10353000D7F8B420C7F88020FB67F96FD7F8802050
:1035400041E80023BB67BB6F002BE1D17B681B68A0
:1035500014333B663B6E53E8003FFB65FB6D23F085
:103560004003C7F8B0307B681B681433D7F8B0202D
:10357000FA66BB66B96EFA6E41E800237B667B6E25
:10358000002BE3D17B68202283F842207B68002255
:103590001A637B681B680C33FB64FB6C53E8003FC9
:1035A000BB64BB6C23F01003C7F8AC307B681B68AE
:1035B0000C33D7F8AC20BA657B65796DBA6D41E8FC
:1035C00000233B653B6D002BE3D17B68DB6B18462A
:1035D000FDF737FF7B6802225A637B689A8D7B6810
:1035E000DB8D9BB2D31A9BB21946786800F0BFF806
:1035F0009CE000BF253900087B689A8D7B68DB8DD5
:103600009BB2D31AA7F8CE307B68DB8D9BB2002B20
:1036100000F08E80B7F8CE30002B00F089807B68F8
:103620001B680C33BB63BB6B53E8003F7B637B6B56
:1036300023F49073C7F8C8307B681B680C33D7F845
:10364000C8207A643B64396C7A6C41E80023FB63E0
:10365000FB6B002BE3D17B681B6814337B627B6AB6
:1036600053E8003F3B623B6A23F00103C7F8C430D4
:103670007B681B681433D7F8C4203A63FB62F96A8D
:103680003A6B41E80023BB62BB6A002BE3D17B6845
:10369000202283F842207B6800221A637B681B6823
:1036A0000C333B613B6953E8003FFB60FB6823F050
:1036B0001003C7F8C0307B681B680C33D7F8C020F4
:1036C000FA61BB61B969FA6941E800237B617B69F2
:1036D000002BE3D17B6802225A63B7F8CE3019463B
:1036E000786800F044F823E0D7F8E43003F0800372
:1036F000002B09D0D7F8E03003F08003002B03D073
:10370000786800F023F914E0D7F8E43003F04003C0
:10371000002B0ED0D7F8E03003F04003002B08D088
:10372000786800F062F904E000BF02E000BF00E04A
:1037300000BFE837BD4680BD80B483B000AF78607D
:1037400000BF0C37BD4680BC704780B483B000AF6B
:10375000786000BF0C37BD4680BC704780B483B032
:1037600000AF786000BF0C37BD4680BC704780B4A6
:1037700083B000AF78600B467B8000BF0C37BD463E
:1037800080BC704780B590B000AFF860B9603B6016
:103790001346FB7150E0BB6CB3F1FF3F4CD0BB6CE8
:1037A000002B07D0FDF764FD02463B68D31ABA6CC4
:1037B0009A4241D2FB681B680C33BB62BB6A53E878
:1037C000003F7B627B6A23F4D073FB63FB681B685A
:1037D0000C33FA6B7A633B63396B7A6B41E80023F5
:1037E000FB62FB6A002BE5D1FB681B6814337B612D
:1037F0007B6953E8003F3B613B6923F00103BB63F6
:10380000FB681B681433BA6B3A62FB61F9693A6A68
:1038100041E80023BB61BB69002BE5D1FB68202296
:1038200083F84120FB68202283F84220FB680022B5
:1038300083F8402003230FE0FB681B681A68BB680D
:103840001340BA689A420CBF01230023DBB21A4628
:10385000FB799A429FD0002318464037BD4680BD71
:1038600080B495B000AF78607B681B680C337B63D5
:103870007B6B53E8003F3B633B6B23F49073FB642B
:103880007B681B680C33FA6C3A64FB63F96B3A6C27
:1038900041E80023BB63BB6B002BE5D17B681B6851
:1038A00014333B623B6A53E8003FFB61FB6923F042
:1038B0000103BB647B681B681433BA6CFA62BB6299
:1038C000B96AFA6A41E800237B627B6A002BE5D182
:1038D0007B681B6B012B19D17B681B680C33FB6069
:1038E000FB6853E8003FBB60BB6823F010037B64B8
:1038F0007B681B680C337A6CBA617B617969BA6941
:1039000041E800233B613B69002BE5D17B68202225
:1039100083F842207B6800221A6300BF5437BD46FB
:1039200080BC704780B584B000AF78607B685B6A0C
:10393000FB60FB680022DA85FB680022DA84F86805
:10394000FFF70CFF00BF1037BD4680BD80B485B0C7
:1039500000AF78607B6893F84130DBB2212B3ED119
:103960007B689B68B3F5805F14D17B681B69002B73
:1039700010D17B681B6AFB60FB681B881A467B685A
:103980001B68C2F308025A607B681B6A9A1C7B683A
:103990001A6208E07B681B6A591C7A6811621A78FF
:1039A0007B681B685A607B68DB8C9BB2013B9BB2D7
:1039B0007A681946D184002B0FD17B681B68DA68BE
:1039C0007B681B6822F08002DA607B681B68DA681B
:1039D0007B681B6842F04002DA60002300E00223AB
:1039E00018461437BD4680BC704780B582B000AF22
:1039F00078607B681B68DA687B681B6822F040028D
:103A0000DA607B68202283F841207868FFF794FE13
:103A1000002318460837BD4680BD80B58CB000AF86
:103A200078607B6893F84230DBB2222B40F0AE80A6
:103A30007B689B68B3F5805F17D17B681B69002B9F
:103A400013D10023FB627B689B6ABB627B681B68A7
:103A50005B689BB2C3F308039AB2BB6A1A807B68A7
:103A60009B6A9A1C7B689A6226E07B689B6AFB6271
:103A70000023BB627B689B68B3F5805F07D07B68DF
:103A80009B68002B0AD17B681B69002B06D17B68E1
:103A90001B685B68DAB2FB6A1A7008E07B681B6817
:103AA0005B68DBB203F07F03DAB2FB6A1A707B68F3
:103AB0009B6A5A1C7B689A627B68DB8D9BB2013BD8
:103AC0009BB27A681946D185002B5DD17B681B6853
:103AD000DA687B681B6822F02002DA607B681B686A
:103AE000DA687B681B6822F48072DA607B681B6886
:103AF0005A697B681B6822F001025A617B682022A8
:103B000083F842207B6800225A637B681B6B012B81
:103B100035D17B6800221A637B681B680C337B619C
:103B20007B6953E8003F3B613B6923F010037B62F4
:103B30007B681B680C337A6A3A62FB61F9693A6AFE
:103B400041E80023BB61BB69002BE5D17B681B68A2
:103B50001B6803F01003102B0AD10023FB607B6865
:103B60001B681B68FB607B681B685B68FB60FB680D
:103B70007B689B8D19467868FFF7F9FD02E078684D
:103B8000FFF7E3FD002302E0002300E002231846D4
:103B90003037BD4680BD000080B584B000AF78608E
:103BA0007B681B681B6923F440517B68DA687B687B
:103BB0001B680A431A617B689A687B681B691A4311
:103BC0007B685B691343BB607B681B68DB6823F41D
:103BD000B05323F00C037A681268B9680B43D360C2
:103BE0007B681B685B6923F440717B689A697B681A
:103BF0001B680A435A617B681B682C4A934203D1B5
:103C0000FEF766FAF86002E0FEF74EFAF860FA682E
:103C100013469B0013449A001A447B685B689B0020
:103C2000B2FBF3F3224AA2FB03235B091901FA68F2
:103C300013469B0013449A001A447B685B689B0000
:103C4000B2FBF3F21A4BA3FB02035B09642000FBF7
:103C500003F3D31A1B013233154AA2FB03235B097A
:103C600003F0F0031944FA6813469B0013449A00CA
:103C70001A447B685B689B00B2FBF3F20C4BA3FB1E
:103C800002035B09642000FB03F3D31A1B013233E8
:103C9000074AA2FB03235B0903F00F027B681B6842
:103CA0000A449A6000BF1037BD4680BD003801400D
:103CB0001F85EB5180B485B000AFEFF30583BB6087
:103CC000BB68002B0FD1EFF310837B607B68002B68
:103CD00009D1104B1B68022B09D1EFF311833B6014
:103CE0003B68002B03D06FF00503FB600CE0094B31
:103CF0001B68002B05D1074B01221A600023FB60D3
:103D000002E04FF0FF33FB60FB6818461437BD46F6
:103D100080BC70472001002080B584B000AFEFF375
:103D20000583BB60BB68002B0FD1EFF310837B6072
:103D30007B68002B09D1114B1B68022B09D1EFF3D3
:103D400011833B603B68002B03D06FF00503FB60E1
:103D50000EE00A4B1B68012B07D1084B02221A60A8
:103D600001F090F80023FB6002E04FF0FF33FB60AE
:103D7000FB6818461037BD4680BD00BF20010020FB
:103D800080B592B004AFF860B9607A6000237B61BF
:103D9000EFF305837B627B6A002B40F09480EFF3A6
:103DA00010833B623B6A002B40F08D80484B1B68C0
:103DB000022B06D1EFF31183FB61FB69002B40F06E
:103DC0008280FB68002B7ED080233B631823FB623C
:103DD0000023FB7607F11B037B634FF0FF33BB62CD
:103DE0007B68002B45D07B681B68002B02D07B686A
:103DF0001B687B637B689B69002B02D07B689B6997
:103E0000FB62FB6A002B08D0FB6A382B05D87B6865
:103E10005B6803F00103002B01D0002354E07B68B2
:103E20005B69002B03D07B685B699B083B637B6805
:103E30009B68002B0ED07B68DB685B2B0AD97B6804
:103E40001B69002B06D07B685B69002B02D0012325
:103E5000BB6210E07B689B68002B0CD17B68DB6841
:103E6000002B08D17B681B69002B04D10023BB62A7
:103E700001E00023BB62BB6A012B10D17B681B6988
:103E80007A68926802920193FB6A0093BB683A6B6E
:103E9000796BF86800F024FE03467B6113E0BB6A8F
:103EA000002B10D13B6B9AB207F114030193FB6A0C
:103EB0000093BB68796BF86800F071FE0346012B34
:103EC00001D000237B617B6918463837BD4680BD31
:103ED0002001002080B586B000AF7860EFF3058345
:103EE0003B613B69002B0FD1EFF31083FB60FB6854
:103EF000002B09D10D4B1B68022B09D1EFF3118365
:103F0000BB60BB68002B03D06FF005037B6107E04B
:103F100000237B617B68002B02D0786800F07CFF77
:103F20007B6918461837BD4680BD00BF20010020C0
:103F300080B485B000AFF860B9607A60FB68064A6B
:103F40001A60BB68054A1A607B6880221A6000BF4D
:103F50001437BD4680BC704724010020800100203A
:103F600080B485B000AFF860B9607A60FB68074A3A
:103F70001A60BB68064A1A607B684FF480721A6048
:103F800000BF1437BD4680BC704700BF80030020CF
:103F9000DC03002080B483B000AF78607B6803F15D
:103FA00008027B685A607B684FF0FF329A607B683A
:103FB00003F108027B68DA607B6803F108027B6822
:103FC0001A617B6800221A6000BF0C37BD4680BCB6
:103FD000704780B483B000AF78607B6800221A61BC
:103FE00000BF0C37BD4680BC704780B485B000AFC1
:103FF000786039607B685B68FB603B68FA685A6090
:10400000FB689A683B689A60FB689B683A685A60EC
:10401000FB683A689A603B687A681A617B681B683B
:104020005A1C7B681A6000BF1437BD4680BC7047BD
:1040300080B485B000AF786039603B681B68BB60B6
:10404000BB68B3F1FF3F03D17B681B69FB600CE0E9
:104050007B680833FB6002E0FB685B68FB60FB6821
:104060005B681B68BA689A42F6D2FB685A683B687C
:104070005A603B685B683A689A603B68FA689A6085
:10408000FB683A685A603B687A681A617B681B680B
:104090005A1C7B681A6000BF1437BD4680BC70474D
:1040A00080B485B000AF78607B681B69FB607B687B
:1040B0005B687A6892689A607B689B687A685268E5
:1040C0005A60FB685B687A689A4203D17B689A6899
:1040D000FB685A607B6800221A61FB681B685A1EE5
:1040E000FB681A60FB681B6818461437BD4680BC25
:1040F0007047000080B584B000AF786039607B689D
:10410000FB60FB68002B0BD14FF0500383F3118849
:10411000BFF36F8FBFF34F8FBB6000BF00BFFDE7E2
:1041200001F0FCFFFB681A68FB68DB6BF968096C3F
:1041300001FB03F31A44FB685A60FB6800229A6390
:10414000FB681A68FB689A60FB681A68FB68DB6B9F
:10415000013BF968096C01FB03F31A44FB68DA6060
:10416000FB68FF2283F84420FB68FF2283F8452088
:104170003B68002B14D1FB681B69002B1AD0FB682D
:104180001033184601F010F90346002B12D00D4BE6
:104190004FF080521A60BFF34F8FBFF36F8F09E06B
:1041A000FB6810331846FFF7F5FEFB68243318460A
:1041B000FFF7F0FE01F0E2FF012318461037BD467D
:1041C00080BD00BF04ED00E080B58EB002AFF860A6
:1041D000B9607A603B60FB68002B0BD14FF0500355
:1041E00083F31188BFF36F8FBFF34F8FBB6200BFA4
:1041F00000BFFDE73B68002B0BD14FF0500383F36A
:104200001188BFF36F8FBFF34F8F7B6200BF00BF7A
:10421000FDE77B68002B02D0BB68002B01D0012397
:1042200000E00023002B0BD14FF0500383F31188E3
:10423000BFF36F8FBFF34F8F3B6200BF00BFFDE73F
:104240007B68002B02D1BB68002B01D1012300E069
:104250000023002B0BD14FF0500383F31188BFF3E1
:104260006F8FBFF34F8FFB6100BF00BFFDE750238F
:104270007B617B69502B0BD04FF0500383F3118887
:10428000BFF36F8FBFF34F8FBB6100BF00BFFDE770
:104290003B68FB62FB6A002B0DD0FB6A012283F8AE
:1042A000462097F83820FB6A009313467A68B9686D
:1042B000F86800F005F8FB6A18463037BD4680BD47
:1042C00080B584B000AFF860B9607A60FB70BB68FD
:1042D000002B03D1BB69BA691A6002E0BB697A6836
:1042E0001A60BB69FA68DA63BB69BA681A640121AB
:1042F000B869FFF7FFFEBB69FA7883F84C2000BF6E
:104300001037BD4680BD000080B58EB000AFF860AC
:10431000B9607A603B6000237B63FB683B633B6B67
:10432000002B0BD14FF0500383F31188BFF36F8F35
:10433000BFF34F8FBB6200BF00BFFDE7BB68002B20
:1043400003D13B6B1B6C002B01D1012300E0002348
:10435000002B0BD14FF0500383F31188BFF36F8F05
:10436000BFF34F8F7B6200BF00BFFDE73B68022BAE
:1043700003D13B6BDB6B012B01D1012300E0002358
:10438000002B0BD14FF0500383F31188BFF36F8FD5
:10439000BFF34F8F3B6200BF00BFFDE701F0C8F9DC
:1043A0000346002B02D17B68002B01D1012300E0E2
:1043B0000023002B0BD14FF0500383F31188BFF380
:1043C0006F8FBFF34F8FFB6100BF00BFFDE701F0B0
:1043D000A5FE3B6B9A6B3B6BDB6B9A4202D33B684F
:1043E000022B29D13A68B968386B00F00DFAF862EF
:1043F0003B6B5B6A002B10D03B6B2433184600F0FC
:10440000D3FF0346002B13D03F4B4FF080521A606E
:10441000BFF34F8FBFF36F8F0AE0FB6A002B07D00B
:10442000394B4FF080521A60BFF34F8FBFF36F8F3D
:1044300001F0A4FE012363E07B68002B03D101F0AF
:104440009DFE00235CE07B6B002B06D107F114037B
:10445000184601F00DF801237B6301F08FFE00F098
:1044600079FD01F05BFE3B6B93F844305BB2B3F136
:10447000FF3F03D13B6B002283F844203B6B93F852
:1044800045305BB2B3F1FF3F03D13B6B002283F8B1
:10449000452001F073FE3A1D07F11403114618463A
:1044A00000F0FCFF0346002B24D1386B00F0A4FA87
:1044B0000346002B18D03B6B10337A681146184620
:1044C00000F020FF386B00F02FFA00F051FD03469A
:1044D000002B7FF47CAF0C4B4FF080521A60BFF37F
:1044E0004F8FBFF36F8F72E7386B00F01DFA00F04B
:1044F0003FFD6CE7386B00F017FA00F039FD002340
:1045000018463837BD4680BD04ED00E080B58EB05A
:1045100000AFF860B9607A603B60FB683B633B6B5F
:10452000002B0BD14FF0500383F31188BFF36F8F33
:10453000BFF34F8F7B6200BF00BFFDE7BB68002B5E
:1045400003D13B6B1B6C002B01D1012300E0002346
:10455000002B0BD14FF0500383F31188BFF36F8F03
:10456000BFF34F8F3B6200BF00BFFDE73B68022BEC
:1045700003D13B6BDB6B012B01D1012300E0002356
:10458000002B0BD14FF0500383F31188BFF36F8FD3
:10459000BFF34F8FFB6100BF00BFFDE701F080FE5E
:1045A000EFF311824FF0500383F31188BFF36F8F45
:1045B000BFF34F8FBA617B61BB69FB623B6B9A6B48
:1045C0003B6BDB6B9A4202D33B68022B2CD13B6BDB
:1045D00093F8453087F82B303A68B968386B00F0AB
:1045E00013F997F92B30B3F1FF3F12D13B6B5B6AA4
:1045F000002B16D03B6B2433184600F0D5FE034643
:10460000002B0ED07B68002B0BD07B6801221A6038
:1046100007E097F82B300133DBB25AB23B6B83F8DB
:10462000452001237B6301E000237B63FB6A3B6140
:104630003B6983F3118800BF7B6B18463837BD4652
:1046400080BD000080B58CB000AFF860B9607A60C2
:104650000023FB62FB68BB62BB6A002B0BD14FF0EF
:10466000500383F31188BFF36F8FBFF34F8F3B620B
:1046700000BF00BFFDE7BB68002B03D1BB6A1B6C0A
:10468000002B01D1012300E00023002B0BD14FF0C0
:10469000500383F31188BFF36F8FBFF34F8FFB611C
:1046A00000BF00BFFDE701F043F80346002B02D135
:1046B0007B68002B01D1012300E00023002B0BD1EC
:1046C0004FF0500383F31188BFF36F8FBFF34F8F09
:1046D000BB6100BF00BFFDE701F020FDBB6A9B6B23
:1046E0007B627B6A002B1FD0B968B86A00F0F6F8CD
:1046F0007B6A5A1EBB6A9A63BB6A1B69002B0FD088
:10470000BB6A1033184600F04FFE0346002B07D05B
:104710003C4B4FF080521A60BFF34F8FBFF36F8F47
:1047200001F02CFD012369E07B68002B03D101F02F
:1047300025FD002362E0FB6A002B06D107F1100380
:10474000184600F095FE0123FB6201F017FD00F012
:1047500001FC01F0E3FCBB6A93F844305BB2B3F1B7
:10476000FF3F03D1BB6A002283F84420BB6A93F861
:1047700045305BB2B3F1FF3F03D1BB6A002283F83F
:10478000452001F0FBFC3A1D07F1100311461846C5
:1047900000F084FE0346002B23D1B86A00F016F91E
:1047A0000346002B17D0BB6A24337A68114618469B
:1047B00000F0A8FDB86A00F0B7F800F0D9FB034696
:1047C000002B89D10F4B4FF080521A60BFF34F8FEF
:1047D000BFF36F8F80E7B86A00F0A6F800F0C8FB5F
:1047E0007AE7B86A00F0A0F800F0C2FBB86A00F0FF
:1047F000EDF80346002B3FF46FAF00231846303727
:10480000BD4680BD04ED00E080B586B000AFF86025
:10481000B9607A6000237B61FB689B6B3B61FB683E
:104820001B6C002B0DD1FB681B68002B4DD1FB6866
:104830005B68184600F09AFF7861FB6800225A60B6
:1048400043E07B68002B19D1FB689868FB681B6C00
:104850001A46B96801F06EFFFB689A68FB681B6C2A
:104860001A44FB689A60FB689A68FB685B689A4226
:104870002BD3FB681A68FB689A6026E0FB68D8684F
:10488000FB681B6C1A46B96801F054FFFB68DA68D4
:10489000FB681B6C5B421A44FB68DA60FB68DA68F1
:1048A000FB681B689A4207D2FB685A68FB681B6C5E
:1048B0005B421A44FB68DA607B68022B05D13B69D6
:1048C000002B02D03B69013B3B613B695A1CFB68F2
:1048D0009A637B6918461837BD4680BD80B582B0A3
:1048E00000AF786039607B681B6C002B18D07B6848
:1048F000DA687B681B6C1A447B68DA607B68DA686C
:104900007B685B689A4203D37B681A687B68DA60CD
:104910007B68D9687B681B6C1A46386801F00AFF0F
:1049200000BF0837BD4680BD80B584B000AF786059
:1049300001F0F4FB7B6893F84530FB7311E07B6872
:104940005B6A002B12D07B682433184600F02CFDE4
:104950000346002B01D000F005FEFB7B013BDBB2E0
:10496000FB7397F90F30002BE9DC00E000BF7B6898
:10497000FF2283F8452001F001FC01F0CFFB7B68AA
:1049800093F84430BB7311E07B681B69002B12D095
:104990007B681033184600F007FD0346002B01D05A
:1049A00000F0E0FDBB7B013BDBB2BB7397F90E303F
:1049B000002BE9DC00E000BF7B68FF2283F8442085
:1049C00001F0DCFB00BF1037BD4680BD80B584B070
:1049D00000AF786001F0A2FB7B689B6B002B02D1DB
:1049E0000123FB6001E00023FB6001F0C7FBFB68D3
:1049F00018461037BD4680BD80B584B000AF7860E2
:104A000001F08CFB7B689A6B7B68DB6B9A4202D16E
:104A10000123FB6001E00023FB6001F0AFFBFB68BA
:104A200018461037BD4680BD80B485B000AF7860B1
:104A300039600023FB6014E00E4AFB6852F8333003
:104A4000002B0BD10B49FB683A6841F83320094A27
:104A5000FB68DB0013447A685A6006E0FB680133A8
:104A6000FB60FB68072BE7D900BF00BF1437BD46CA
:104A700080BC7047DC07002080B586B000AFF860CE
:104A8000B9607A60FB687B6101F048FB7B6993F851
:104A900044305BB2B3F1FF3F03D17B69002283F85E
:104AA00044207B6993F845305BB2B3F1FF3F03D1FB
:104AB0007B69002283F8452001F060FB7B699B6BDA
:104AC000002B06D17B6924337A68B968184600F058
:104AD0003FFC7869FFF728FF00BF1837BD4680BD4F
:104AE00080B58EB004AFF860B9607A603B607B6BD4
:104AF000002B0BD14FF0500383F31188BFF36F8F5E
:104B0000BFF34F8F3B6200BF00BFFDE7BB6B002BC5
:104B10000BD14FF0500383F31188BFF36F8FBFF3B6
:104B20004F8FFB6100BF00BFFDE75C233B613B692A
:104B30005C2B0BD04FF0500383F31188BFF36F8FC2
:104B4000BFF34F8FBB6100BF00BFFDE7BB6B002B06
:104B50001ED07B6B002B1BD0BB6B7B627B6A7A6B9E
:104B60001A637B6A022283F85920002303937B6A2D
:104B7000029307F1140301933B6B00933B687A683F
:104B8000B968F86800F050F8786A00F0D5F801E0EC
:104B900000237B617B6918462837BD4680BD80B500
:104BA0008CB004AFF860B9603B601346FB80FB88B3
:104BB0009B00184601F0B4FB78617B69002B0ED096
:104BC0005C2001F0ADFBF861FB69002B03D0FB69B1
:104BD0007A691A6305E0786901F06AFC01E0002354
:104BE000FB61FB69002B17D0FB69002283F8592079
:104BF000FA8800230393FB690293FB6A0193BB6A63
:104C000000933B68B968F86800F00EF8F86900F0A6
:104C100093F80123BB6102E04FF0FF33BB61BB6936
:104C200018462037BD4680BD80B588B000AFF8601B
:104C3000B9607A603B603B6B186B7B689B001A46DF
:104C4000A52101F04BFD3B6B1A6B7B6803F18043A0
:104C5000013B9B001344BB61BB6923F00703BB61AD
:104C6000BB6903F00703002B0BD04FF0500383F315
:104C70001188BFF36F8FBFF34F8F7B6100BF00BF01
:104C8000FDE70023FB6112E0BA68FB691344197861
:104C90003A6BFB69134434330A461A70BA68FB69ED
:104CA00013441B78002B06D0FB690133FB61FB69C1
:104CB0000F2BE9D900E000BF3B6B002283F84320B3
:104CC000BB6A372B01D93723BB623B6BBA6ADA6206
:104CD0003B6BBA6ADA643B6B00221A653B6B0433A8
:104CE0001846FFF776F93B6B18331846FFF771F952
:104CF0003B6B3A6B1A61BB6AC3F138023B6B9A613A
:104D00003B6B3A6B5A623B6B00225A653B6B00224D
:104D100083F858203A68F968B86901F00BF902463F
:104D20003B6B1A60FB6A002B02D0FB6A3A6B1A607D
:104D300000BF2037BD4680BD80B582B000AF78602F
:104D400001F0ECF92D4B1B6801332C4A13602C4BFE
:104D50001B68002B09D12A4A7B681360274B1B680C
:104D6000012B10D100F022FC0DE0264B1B68002B1C
:104D700009D1234B1B68DA6A7B68DB6A9A4202D846
:104D80001F4A7B681360204B1B6801331E4A136067
:104D90001D4B1A687B685A647B68DA6A1B4B1B6878
:104DA0009A4203D97B68DB6A184A13607B68DA6A27
:104DB00013469B0013449B00154A1A447B68043336
:104DC00019461046FFF711F901F0D8F90D4B1B6891
:104DD000002B0ED00A4B1B68DA6A7B68DB6A9A42AA
:104DE00007D20C4B4FF080521A60BFF34F8FBFF3C6
:104DF0006F8F00BF0837BD4680BD00BFF00C00209C
:104E00001C080020FC0C00200C0D0020F80C0020D9
:104E10002008002004ED00E080B584B000AF786089
:104E20000023FB607B68002B18D0144B1B68002B01
:104E30000BD04FF0500383F31188BFF36F8FBFF394
:104E40004F8FBB6000BF00BFFDE700F083F800217B
:104E5000786800F0FBFC00F08BF8F860FB68002B32
:104E600007D1074B4FF080521A60BFF34F8FBFF34B
:104E70006F8F00BF1037BD4680BD00BF180D0020EA
:104E800004ED00E080B58AB004AF0023BB600023CE
:104E90007B603A46391D07F108031846FFF748F8CA
:104EA00039687B68BA68029201930023009300235B
:104EB0000A4622492248FFF713FE0346214A13609F
:104EC000204B1B68002B02D001237B6101E00023F3
:104ED0007B617B69012B02D100F00CFD78617B695D
:104EE000012B16D14FF0500383F31188BFF36F8F5E
:104EF000BFF34F8F3B6100BF134B4FF0FF321A607F
:104F0000124B01221A60124B00221A6001F094F831
:104F10000FE07B69B3F1FF3F0BD14FF0500383F3F8
:104F20001188BFF36F8FBFF34F8FFB6000BF00BFCF
:104F3000FDE700BF1837BD4680BD00BF8067000891
:104F40007D550008140D0020100D0020FC0C0020E1
:104F5000F40C002080B400AF044B1B680133034AFB
:104F6000136000BFBD4680BC704700BF180D002015
:104F700080B584B000AF0023FB600023BB60424BD0
:104F80001B68002B0BD14FF0500383F31188BFF344
:104F90006F8FBFF34F8F3B6000BF00BFFDE701F095
:104FA000BDF8394B1B68013B374A1360364B1B6811
:104FB000002B62D1354B1B68002B5ED02FE0344BA9
:104FC000DB68DB68FB60FB6818331846FFF768F89E
:104FD000FB6804331846FFF763F8FB68DA6A2D4B69
:104FE0001B689A4203D9FB68DB6A2A4A1360FB6894
:104FF000DA6A13469B0013449B00274A1A44FB6855
:10500000043319461046FEF7F0FFFB68DA6A234BBB
:105010001B68DB6A9A4202D3214B01221A601C4BA7
:105020001B68002BCBD1FB68002B01D000F05CFB90
:105030001C4B1B687B607B68002B10D000F044F891
:105040000346002B02D0164B01221A607B68013BFD
:105050007B607B68002BF1D1124B00221A60104B51
:105060001B68002B09D00123BB600F4B4FF080520F
:105070001A60BFF34F8FBFF36F8F01F07FF8BB68EB
:1050800018461037BD4680BD180D0020F00C0020DA
:10509000B00C0020F80C0020200800201C08002084
:1050A000040D0020000D002004ED00E080B483B06A
:1050B00000AF044B1B687B607B6818460C37BD460D
:1050C00080BC7047F40C002080B586B000AF002390
:1050D0007B61524B1B68002B40F08F80504B1B684C
:1050E00001333B614E4A3B6913603B69002B21D180
:1050F0004C4B1B681B68002B0BD04FF0500383F305
:105100001188BFF36F8FBFF34F8F3B6000BF00BFAD
:10511000FDE7444B1B68FB60434B1B68414A13602F
:10512000414AFB681360414B1B6801333F4A1360DF
:1051300000F0DAFA3E4B1B683A699A424ED3394B7B
:105140001B681B68002B01D1012300E00023002B0A
:1051500004D0374B4FF0FF321A603FE0314B1B68F1
:10516000DB68DB68BB60BB685B687B603A697B6857
:105170009A4203D22E4A7B6813602FE0BB68043347
:105180001846FEF78DFFBB689B6A002B04D0BB68F6
:1051900018331846FEF784FFBB68DA6A254B1B6894
:1051A0009A4203D9BB68DB6A224A1360BB68DA6A99
:1051B00013469B0013449B001F4A1A44BB680433E8
:1051C00019461046FEF711FFBB68DA6A1B4B1B68D5
:1051D000DB6A9A42B3D301237B61B0E7174B1B68AC
:1051E000DA6A154913469B0013449B000B441B6865
:1051F000012B07D901237B6104E0114B1B680133AC
:105200000F4A13600F4B1B68002B01D001237B61F9
:105210007B6918461837BD4680BD00BF180D0020B9
:10522000F40C0020A80C0020AC0C0020080D00207D
:10523000100D0020F80C0020200800201C08002081
:10524000000D0020040D002080B485B000AF284B75
:105250001B68002B03D0274B01221A6042E0254B2C
:1052600000221A60244B1B68FB6011E0FB68002BD6
:105270000BD14FF0500383F31188BFF36F8FBFF34F
:105280004F8F7B6000BF00BFFDE7FB68013BFB6009
:105290001A49FA6813469B0013449B000B441B6891
:1052A000002BE3D0FA6813469B0013449B00134A7B
:1052B0001344BB60BB685B685A68BB685A60BB68D4
:1052C0005A68BB6808339A4204D1BB685B685A6865
:1052D000BB685A60BB685B68DB68094A1360064AB2
:1052E000FB68136000BF1437BD4680BC704700BF29
:1052F000180D0020040D0020F80C002020080020CC
:105300001C08002080B584B000AF786039607B68ED
:10531000002B0BD14FF0500383F31188BFF36F8F35
:10532000BFF34F8FFB6000BF00BFFDE7074B1B685B
:10533000183319467868FEF77BFE0121386800F0C3
:1053400085FA00BF1037BD4680BD00BF1C08002095
:1053500080B586B000AFF860B9607A60FB68002B5A
:105360000BD14FF0500383F31188BFF36F8FBFF35E
:105370004F8F7B6100BF00BFFDE70A4B1B681833EE
:105380001946F868FEF731FE7B68002B02D04FF01B
:10539000FF33BB607968B86800F058FA00BF18376F
:1053A000BD4680BD1C08002080B586B000AF786087
:1053B0007B68DB68DB683B613B69002B0BD14FF0FE
:1053C000500383F31188BFF36F8FBFF34F8FFB60E0
:1053D00000BF00BFFDE73B6918331846FEF760FECB
:1053E0001D4B1B68002B1DD13B6904331846FEF78B
:1053F00057FE3B69DA6A194B1B689A4203D93B692D
:10540000DB6A164A13603B69DA6A13469B00134451
:105410009B00134A1A443B69043319461046FEF7B1
:10542000E4FD05E03B69183319460E48FEF7DDFD43
:105430003B69DA6A0C4B1B68DB6A9A4205D9012387
:105440007B610A4B01221A6001E000237B617B69CA
:1054500018461837BD4680BD180D0020F80C0020F6
:1054600020080020B00C00201C080020040D0020A3
:1054700080B483B000AF7860064B1A687B681A600E
:10548000054B1A687B685A6000BF0C37BD4680BC6C
:10549000704700BF080D0020F40C002080B588B0D4
:1054A00000AF786039607B68002B0BD14FF0500360
:1054B00083F31188BFF36F8FBFF34F8F3B6100BF42
:1054C00000BFFDE73B68002B0BD14FF0500383F387
:1054D0001188BFF36F8FBFF34F8FFB6000BF00BF1A
:1054E000FDE700F01BFE1D4B1B68BB617B685B6822
:1054F000BA69D31A7B613B681B68B3F1FF3F02D1E5
:105500000023FB6123E07B681A68154B1B689A42F5
:1055100007D07B685B68BA699A4202D30123FB61BA
:1055200015E03B681B687A699A420BD23B681A689F
:105530007B69D21A3B681A607868FFF799FF0023ED
:10554000FB6104E03B6800221A600123FB6100F06C
:1055500015FEFB6918462037BD4680BDF40C0020BF
:10556000080D002080B400AF034B01221A6000BF79
:10557000BD4680BC704700BF040D002080B582B0DE
:1055800000AF786000F052F8064B1B68012BF9D988
:10559000054B4FF080521A60BFF34F8FBFF36F8FF0
:1055A000F0E700BF2008002004ED00E080B582B0E5
:1055B00000AF00237B600CE07A6813469B00134425
:1055C0009B00124A13441846FEF7E4FC7B68013343
:1055D0007B607B68372BEFD90D48FEF7DBFC0D486D
:1055E000FEF7D8FC0C48FEF7D5FC0C48FEF7D2FCC1
:1055F0000B48FEF7CFFC0B4B054A1A600A4B054AD5
:105600001A6000BF0837BD4680BD00BF20080020DB
:10561000800C0020940C0020B00C0020C40C002052
:10562000DC0C0020A80C0020AC0C002080B582B05F
:1056300000AF19E000F072FD104BDB68DB687B60A7
:105640007B6804331846FEF72BFD0D4B1B68013BAE
:105650000B4A13600B4B1B68013B0A4A136000F0B6
:105660008DFD786800F010F8064B1B68002BE1D127
:1056700000BF00BF0837BD4680BD00BFC40C00207E
:10568000F00C0020D80C002080B584B000AF78600A
:105690007B6893F85930002B08D17B681B6B184648
:1056A00000F006FF786800F003FF19E07B6893F8CC
:1056B0005930012B03D1786800F0FAFE10E07B68C6
:1056C00093F85930022B0BD04FF0500383F311881D
:1056D000BFF36F8FBFF34F8FFB6000BF00BFFDE7CD
:1056E00000BF1037BD4680BD80B483B000AF0E4B05
:1056F0001B681B68002B01D1012300E00023002B55
:1057000004D00A4B4FF0FF321A6008E0064B1B68CA
:10571000DB68DB687B607B685B68044A136000BF02
:105720000C37BD4680BC7047A80C0020100D00202F
:1057300080B483B000AF0B4B1B68002B02D1012358
:105740007B6008E0084B1B68002B02D102237B60C2
:1057500001E000237B607B6818460C37BD4680BCA7
:10576000704700BFFC0C0020180D002080B586B0EB
:1057700000AF78607B683B6100237B617B68002B16
:1057800058D02F4B1B683A699A420BD04FF0500308
:1057900083F31188BFF36F8FBFF34F8FFB6000BFA0
:1057A00000BFFDE73B691B6D002B0BD14FF0500391
:1057B00083F31188BFF36F8FBFF34F8FBB6000BFC0
:1057C00000BFFDE73B691B6D5A1E3B691A653B69CB
:1057D000DA6A3B69DB6C9A422CD03B691B6D002B6B
:1057E00028D13B6904331846FEF75AFC3B69DA6C52
:1057F0003B69DA623B69DB6AC3F138023B699A6153
:105800003B69DA6A0F4B1B689A4203D93B69DB6A32
:105810000C4A13603B69DA6A13469B0013449B00F1
:10582000094A1A443B69043319461046FEF7DDFB6A
:1058300001237B617B6918461837BD4680BD00BFD8
:105840001C080020F80C00202008002080B584B03F
:1058500000AF78603960214B1B68FB60204B1B68F0
:1058600004331846FEF71CFC7B68B3F1FF3F0AD1F6
:105870003B68002B07D01A4B1B68043319461948A4
:10588000FEF7B3FB26E0FA687B681344BB60144B59
:105890001B68BA685A60BA68FB689A4209D2124B10
:1058A0001A680F4B1B68043319461046FEF7C0FBFD
:1058B00010E00E4B1A680A4B1B6804331946104659
:1058C000FEF7B6FB0A4B1B68BA689A4202D2084A36
:1058D000BB68136000BF1037BD4680BDF40C0020CC
:1058E0001C080020DC0C0020AC0C0020A80C0020C0
:1058F000100D002080B58AB004AF00237B6100F05A
:10590000D9FA1D4B1B68002B21D00023FB6000231C
:10591000BB603A1D07F1080107F10C031846FEF7BA
:105920001FFB7968BB68FA68029201930223009317
:1059300000230A4611491248FFF7D2F80346114ADC
:105940001360104B1B68002B01D001237B617B6926
:10595000002B0BD14FF0500383F31188BFF36F8FEF
:10596000BFF34F8F3B6100BF00BFFDE77B69184667
:105970001837BD4680BD00BF4C0D00208867000869
:10598000A95A0008500D002080B58AB000AFF86019
:10599000B9607A603B6000237B62FB68002B0BD10F
:1059A0004FF0500383F31188BFF36F8FBFF34F8F16
:1059B0003B6200BF00BFFDE7194B1B68002B2AD0DC
:1059C000BB683B617B687B61FB68BB61BB68052B87
:1059D00018DCFFF7ADFE0346022B09D1104B186807
:1059E00007F1100100233A6BFEF78EFC786212E09B
:1059F0000B4B186807F1100100230022FEF784FC0E
:105A0000786208E0064B186807F1100100233A6835
:105A1000FEF77CFD78627B6A18462837BD4680BD5C
:105A20004C0D002080B588B002AF786039601D4B06
:105A30001B68DB68DB687B617B6904331846FEF713
:105A40002FFB7B69DB69012B23D17B699A697B681A
:105A5000D1187B683A68786900F0CCF80346002BCF
:105A600017D00023009300237A6800217869FFF79C
:105A70008BFF38613B69002B0BD14FF0500383F350
:105A80001188BFF36F8FBFF34F8FFB6000BF00BF64
:105A9000FDE77B695B6A7869984700BF1837BD46A8
:105AA00080BD00BF440D002080B584B000AF786099
:105AB00007F10803184600F059F8F860BB6819466A
:105AC000F86800F005F800F0D7F800BFF0E7000034
:105AD00080B584B000AF78603960FFF73BFA07F11A
